{
  "_format": "hh3-artifact-1",
  "contractName": "LuckyMilitiaMatchRegistry",
  "sourceName": "contracts/LuckyMilitiaMatchRegistry.sol",
  "abi": [
    {
      "anonymous": false,
      "inputs": [
        {
          "indexed": true,
          "internalType": "address",
          "name": "player",
          "type": "address"
        },
        {
          "indexed": false,
          "internalType": "uint256",
          "name": "timestamp",
          "type": "uint256"
        }
      ],
      "name": "PlayerSignedIn",
      "type": "event"
    },
    {
      "inputs": [
        {
          "internalType": "address",
          "name": "player",
          "type": "address"
        }
      ],
      "name": "getSignInTime",
      "outputs": [
        {
          "internalType": "uint256",
          "name": "",
          "type": "uint256"
        }
      ],
      "stateMutability": "view",
      "type": "function"
    },
    {
      "inputs": [
        {
          "internalType": "address",
          "name": "player",
          "type": "address"
        }
      ],
      "name": "hasSignedIn",
      "outputs": [
        {
          "internalType": "bool",
          "name": "",
          "type": "bool"
        }
      ],
      "stateMutability": "view",
      "type": "function"
    },
    {
      "inputs": [],
      "name": "signIn",
      "outputs": [],
      "stateMutability": "nonpayable",
      "type": "function"
    },
    {
      "inputs": [
        {
          "internalType": "address",
          "name": "",
          "type": "address"
        }
      ],
      "name": "signInTime",
      "outputs": [
        {
          "internalType": "uint256",
          "name": "",
          "type": "uint256"
        }
      ],
      "stateMutability": "view",
      "type": "function"
    }
  ],
  "bytecode": "0x608060405234801561000f575f80fd5b5061033c8061001d5f395ff3fe608060405234801561000f575f80fd5b506004361061004a575f3560e01c806339529c461461004e578063724db3de1461007e57806394c9cd98146100ae5780639e4cda43146100de575b5f80fd5b61006860048036038101906100639190610277565b6100e8565b60405161007591906102bc565b60405180910390f35b61009860048036038101906100939190610277565b61012f565b6040516100a591906102ed565b60405180910390f35b6100c860048036038101906100c39190610277565b610174565b6040516100d591906102ed565b60405180910390f35b6100e6610188565b005b5f805f808473ffffffffffffffffffffffffffffffffffffffff1673ffffffffffffffffffffffffffffffffffffffff1681526020019081526020015f2054119050919050565b5f805f8373ffffffffffffffffffffffffffffffffffffffff1673ffffffffffffffffffffffffffffffffffffffff1681526020019081526020015f20549050919050565b5f602052805f5260405f205f915090505481565b425f803373ffffffffffffffffffffffffffffffffffffffff1673ffffffffffffffffffffffffffffffffffffffff1681526020019081526020015f20819055503373ffffffffffffffffffffffffffffffffffffffff167f02e22779f8b0b9c8cb9e7180fbce8474ce3b4b0a5963f13ad9401ba42591345a4260405161020f91906102ed565b60405180910390a2565b5f80fd5b5f73ffffffffffffffffffffffffffffffffffffffff82169050919050565b5f6102468261021d565b9050919050565b6102568161023c565b8114610260575f80fd5b50565b5f813590506102718161024d565b92915050565b5f6020828403121561028c5761028b610219565b5b5f61029984828501610263565b91505092915050565b5f8115159050919050565b6102b6816102a2565b82525050565b5f6020820190506102cf5f8301846102ad565b92915050565b5f819050919050565b6102e7816102d5565b82525050565b5f6020820190506103005f8301846102de565b9291505056fea26469706673582212207ab5f002b1fdbf901d5dee5fffa2b26e785b37bf43fb801b85a133d8b134166b64736f6c63430008140033",
  "linkReferences": {},
  "deployedLinkReferences": {},
  "immutableReferences": {},
  "inputSourceName": "project/contracts/LuckyMilitiaMatchRegistry.sol",
  "buildInfoId": "solc-0_8_20-3378e19395ccf5dfbc8253746a5b697a0cfb2c48"
}